:100A1E003F065B4F666D7D077F6F777C395E797120
:100A2E000040761E7038375C733E783D6750376EE7
:100A3E00BF86DBCFE6EDFD87FFEF4601020408100F
:100A4E0020408000010200030000000400000000AE
:030A5E0000000095
:10080000E4F593F594F591F592F595F596F5B1F536
:10081000B2F5B3F5B4F5C9F5CAF5CBF5CCF5E1F50C
:10082000E2F51B758E80758CA9758A9AD2A9D28C37
:10083000D2AF7F08780A7410F608DFFC7F08120A2E
:1008400061C2D5E508C3943C4002D2D5E512C394F9
:100850003C4002D2D5E515C394184002D2D530D51C
:100860000BE4F508F51275150C12098E1209DB75EB
:100870000C11750F11E4F518F513F514F517F516AD
:10088000F5093000FDC200051AE51A70020519C30A
:1008900094E8E5199403400BE4F519F51A120A617E
:1008A0001209DB0509E509C394324006E4F5091293
:1008B000091CE51360CCB411120515E515C3941895
:1008C0004003E4F51512098E1209DBE513B4121288
:1008D0001515E515C39418400375151712098E12E6
:1008E00009DBE513B41315E4F5080512E512C3940A
:1008F0003C4003E4F51212098E1209DBE513B4142F
:1009000015E4F5081512E512C3943C400375123B3B
:0C09100012098E1209DBE4F513020882C4
:1009DB00E515C3940A400AE51575F00A84F50A80FB
:1009EB0003750A10E51575F00A8485F00B750C116B
:1009FB00E51275F00A84F50DE51275F00A8485F0A1
:100A0B000EE50875F00A84F510E50875F00A848583
:030A1B00F01122B5
:100A61007B007A0079217528037F02120AA3E52110
:100A7100C4540775F00AA4FFE521540F2FF508E5CA
:100A810022C4540775F00AA4FFE522540F2FF51272
:100A9100E523C4540375F00AA4FFE523540F2FF591
:010AA100153F
:010AA2002231
:10098E00E50875F00A84C454F0FFE50875F00A8492
:10099E00E5F02FF521E51275F00A84C454F0FFE559
:1009AE001275F00A84E5F02FF522E51575F00A842C
:1009BE00C454F0FFE51575F00A84E5F02FF5237B9E
:0D09CE00007A0079217528037F02020AE2F9
:040C27007F3CDFFE31
:010C2B0022A6
:10091C00AE177580F0120C27E58054F0F517758032
:10092C000F120C27E580540F42176317FFEE651763
:10093C00704CAE14851714E5146040C2D5EE7004EB
:10094C00D2D58012EEB5140E0516E516C3941440DC
:10095C0005751612D2D530D525E514C4540F900A5E
:10096C005193FE6019E514540F93FF6011EE25E0CE
:10097C0025E0FEEF2E240CF5138003E4F5167580AC
:01098C00FF6B
:01098D002247
:100BD500E4FEEF25E0FF92C0D2C3C2C30EBE08F209
:010BE50022ED
:100B3800E51B900A4993F4FF120BD5740A251BF89C
:100B4800E6900A1E93FF120BD5D2CCC2CC051BE54A
:0A0B58001BC394084003E4F51B22C0
:03000B00020B6283
:100B6200C0E0C083C082C0D075D000C000C006C043
:100B720007120B38D200D007D006D000D0D0D082D6
:050B8200D083D0E03239
:070BF300D291120BFAD2901F
:040BFA007F0BDFFE90
:010BFE0022D4
:0D0BE600120BF3C291120BFAC290020BFA2F
:0A0C0B00C291120BF5D291020BFA10
:0A0C1500C291120BF5C290020BFA17
:080C1F00120BF3C290020BFA64
:0A0BBF00AC07120BE67FA2120B87B1
:0C0BC900120BF3A29192D5C290020BFA1D
:020B8700AE07B7
:100B89007D08EE30E704D2918002C291EE25E0FEA5
:0A0B9900120BF5C290120BFADDE812
:010BA300222F
:100BA4007D08D291D290120BFAEE25E0FE3091012D
:0A0BB4000EC290120BFADDECAF0642
:010BBE002214
:100AE200120BBF20D522AF04120B87120BC920D5DF
:100AF20017120B0DFF120B87740129F9E43AFA124F
:0B0B02000BC920D503D528E9020C0B1D
:100AA300120BBF20D536AF04120B87120BC920D50A
:100AB3002B120BE67FA3120B87120BC920D51D1235
:100AC3000BA4EF120B26740129F9E43AFAE5286422
:0F0AD300016003120C15D528E6120C1F020C0B44
:03000000020BFFF1
:0C0BFF00787FE4F6D8FD7581280208001C
:100B0D00BB010689828A83E0225002E722BBFE02E6
:090B1D00E32289828A83E4932219
:100B2600BB010689828A83F0225002F722BBFE01AE
:020B3600F322A8
:00000001FF
