:1008B8003F065B4F666D7D077F6F777C395E797188
:1008C8000040761E7038375C733E783D6750376E4F
:1008D800BF86DBCFE6EDFD87FFEF46010204081077
:0308E8002040802D
:10086E00E4F593F594F591F592F595F596F5B1F5C8
:10087E00B2F5B3F5B4F5C9F5CAF5CBF5CCF5E1F59E
:10088E00E2F5127F0878087410F608DFFCE4F51024
:10089E00F511C28BC289D2AAD2A8D288D28AD2AF7F
:0A08AE007F011208FC12080080F61A
:0F08FC007DA57C06ED1D70011C144C70F7DFF11B
:01090B0022C9
:03000300020918D7
:0309180005103295
:0300130002091BC4
:03091B0005113291
:1008EB00E4FEEF25E0FF92C0D2C3C2C30EBE08F2F6
:0108FB0022DA
:10080000E5129008E393F4FF1208EB74082512F840
:10081000E69008B893FF1208EBD2CCC2CC0512E5E3
:1008200012C394084047E4F512E51075F06484F5AE
:1008300008E51075F06484E5F075F00A84F509E5C3
:100840001075F00A8485F00A750B10750C10E5110F
:1008500075F06484F50DE51175F06484E5F075F0CC
:0E0860000A84F50EE51175F00A8485F00F226A
:0300000002090CE6
:0C090C00787FE4F6D8FD75811202086EB9
:00000001FF
